{
  "address": "0x9084dfD5fc3d095C76bd3A42BeC57D01E4C2F0d6",
  "abi": [
    {
      "anonymous": false,
      "inputs": [
        {
          "indexed": false,
          "internalType": "uint8",
          "name": "version",
          "type": "uint8"
        }
      ],
      "name": "Initialized",
      "type": "event"
    },
    {
      "anonymous": false,
      "inputs": [
        {
          "indexed": false,
          "internalType": "address",
          "name": "by",
          "type": "address"
        },
        {
          "indexed": true,
          "internalType": "string",
          "name": "name",
          "type": "string"
        },
        {
          "indexed": true,
          "internalType": "string",
          "name": "aliasName",
          "type": "string"
        },
        {
          "indexed": true,
          "internalType": "string",
          "name": "url",
          "type": "string"
        },
        {
          "indexed": false,
          "internalType": "uint256",
          "name": "price",
          "type": "uint256"
        }
      ],
      "name": "NewURLSet",
      "type": "event"
    },
    {
      "anonymous": false,
      "inputs": [
        {
          "indexed": true,
          "internalType": "address",
          "name": "previousOwner",
          "type": "address"
        },
        {
          "indexed": true,
          "internalType": "address",
          "name": "newOwner",
          "type": "address"
        }
      ],
      "name": "OwnershipTransferred",
      "type": "event"
    },
    {
      "anonymous": false,
      "inputs": [
        {
          "indexed": false,
          "internalType": "address",
          "name": "account",
          "type": "address"
        }
      ],
      "name": "Paused",
      "type": "event"
    },
    {
      "anonymous": false,
      "inputs": [
        {
          "indexed": true,
          "internalType": "address",
          "name": "from",
          "type": "address"
        },
        {
          "indexed": true,
          "internalType": "address",
          "name": "to",
          "type": "address"
        }
      ],
      "name": "RevenueAccountChanged",
      "type": "event"
    },
    {
      "anonymous": false,
      "inputs": [
        {
          "indexed": false,
          "internalType": "address",
          "name": "by",
          "type": "address"
        },
        {
          "indexed": true,
          "internalType": "string",
          "name": "name",
          "type": "string"
        },
        {
          "indexed": true,
          "internalType": "string",
          "name": "aliasName",
          "type": "string"
        },
        {
          "indexed": true,
          "internalType": "string",
          "name": "url",
          "type": "string"
        }
      ],
      "name": "URLDeleted",
      "type": "event"
    },
    {
      "anonymous": false,
      "inputs": [
        {
          "indexed": false,
          "internalType": "address",
          "name": "by",
          "type": "address"
        },
        {
          "indexed": true,
          "internalType": "string",
          "name": "name",
          "type": "string"
        },
        {
          "indexed": true,
          "internalType": "string",
          "name": "aliasName",
          "type": "string"
        },
        {
          "indexed": false,
          "internalType": "string",
          "name": "oldURL",
          "type": "string"
        },
        {
          "indexed": true,
          "internalType": "string",
          "name": "newURL",
          "type": "string"
        },
        {
          "indexed": false,
          "internalType": "uint256",
          "name": "price",
          "type": "uint256"
        }
      ],
      "name": "URLUpdated",
      "type": "event"
    },
    {
      "anonymous": false,
      "inputs": [
        {
          "indexed": false,
          "internalType": "address",
          "name": "account",
          "type": "address"
        }
      ],
      "name": "Unpaused",
      "type": "event"
    },
    {
      "inputs": [],
      "name": "addressRegistry",
      "outputs": [
        {
          "internalType": "contract IAddressRegistry",
          "name": "",
          "type": "address"
        }
      ],
      "stateMutability": "view",
      "type": "function"
    },
    {
      "inputs": [
        {
          "internalType": "string",
          "name": "_name",
          "type": "string"
        },
        {
          "internalType": "string",
          "name": "_aliasName",
          "type": "string"
        }
      ],
      "name": "checkURLValidity",
      "outputs": [
        {
          "internalType": "bool",
          "name": "",
          "type": "bool"
        }
      ],
      "stateMutability": "view",
      "type": "function"
    },
    {
      "inputs": [
        {
          "internalType": "string",
          "name": "_name",
          "type": "string"
        },
        {
          "internalType": "string",
          "name": "_aliasName",
          "type": "string"
        }
      ],
      "name": "deleteURL",
      "outputs": [],
      "stateMutability": "nonpayable",
      "type": "function"
    },
    {
      "inputs": [
        {
          "internalType": "string",
          "name": "_name",
          "type": "string"
        }
      ],
      "name": "getNameOwner",
      "outputs": [
        {
          "internalType": "address",
          "name": "",
          "type": "address"
        }
      ],
      "stateMutability": "view",
      "type": "function"
    },
    {
      "inputs": [
        {
          "internalType": "string",
          "name": "_name",
          "type": "string"
        },
        {
          "internalType": "string",
          "name": "_aliasName",
          "type": "string"
        }
      ],
      "name": "getPrice",
      "outputs": [
        {
          "internalType": "uint256",
          "name": "",
          "type": "uint256"
        }
      ],
      "stateMutability": "view",
      "type": "function"
    },
    {
      "inputs": [
        {
          "internalType": "string",
          "name": "_name",
          "type": "string"
        },
        {
          "internalType": "string",
          "name": "_aliasName",
          "type": "string"
        }
      ],
      "name": "getURL",
      "outputs": [
        {
          "internalType": "string",
          "name": "",
          "type": "string"
        }
      ],
      "stateMutability": "view",
      "type": "function"
    },
    {
      "inputs": [
        {
          "internalType": "address",
          "name": "_addressRegistry",
          "type": "address"
        },
        {
          "internalType": "uint256",
          "name": "_urlUpdatePrice",
          "type": "uint256"
        },
        {
          "internalType": "address",
          "name": "_revenueAccount",
          "type": "address"
        }
      ],
      "name": "initialize",
      "outputs": [],
      "stateMutability": "nonpayable",
      "type": "function"
    },
    {
      "inputs": [
        {
          "internalType": "bytes32",
          "name": "",
          "type": "bytes32"
        }
      ],
      "name": "nameOwnerUpdateAt",
      "outputs": [
        {
          "internalType": "uint256",
          "name": "",
          "type": "uint256"
        }
      ],
      "stateMutability": "view",
      "type": "function"
    },
    {
      "inputs": [],
      "name": "owner",
      "outputs": [
        {
          "internalType": "address",
          "name": "",
          "type": "address"
        }
      ],
      "stateMutability": "view",
      "type": "function"
    },
    {
      "inputs": [],
      "name": "pause",
      "outputs": [],
      "stateMutability": "nonpayable",
      "type": "function"
    },
    {
      "inputs": [],
      "name": "paused",
      "outputs": [
        {
          "internalType": "bool",
          "name": "",
          "type": "bool"
        }
      ],
      "stateMutability": "view",
      "type": "function"
    },
    {
      "inputs": [],
      "name": "renounceOwnership",
      "outputs": [],
      "stateMutability": "nonpayable",
      "type": "function"
    },
    {
      "inputs": [],
      "name": "revenueAccount",
      "outputs": [
        {
          "internalType": "address",
          "name": "",
          "type": "address"
        }
      ],
      "stateMutability": "view",
      "type": "function"
    },
    {
      "inputs": [
        {
          "internalType": "bytes32",
          "name": "_d1dcV2TokenId",
          "type": "bytes32"
        }
      ],
      "name": "setNameOwnerUpdateAt",
      "outputs": [],
      "stateMutability": "nonpayable",
      "type": "function"
    },
    {
      "inputs": [
        {
          "internalType": "string",
          "name": "_name",
          "type": "string"
        },
        {
          "internalType": "string",
          "name": "_aliasName",
          "type": "string"
        },
        {
          "internalType": "string",
          "name": "_url",
          "type": "string"
        },
        {
          "internalType": "uint256",
          "name": "_price",
          "type": "uint256"
        }
      ],
      "name": "setNewURL",
      "outputs": [],
      "stateMutability": "payable",
      "type": "function"
    },
    {
      "inputs": [
        {
          "internalType": "address",
          "name": "_revenueAccount",
          "type": "address"
        }
      ],
      "name": "setRevenueAccount",
      "outputs": [],
      "stateMutability": "nonpayable",
      "type": "function"
    },
    {
      "inputs": [
        {
          "internalType": "address",
          "name": "newOwner",
          "type": "address"
        }
      ],
      "name": "transferOwnership",
      "outputs": [],
      "stateMutability": "nonpayable",
      "type": "function"
    },
    {
      "inputs": [],
      "name": "unpause",
      "outputs": [],
      "stateMutability": "nonpayable",
      "type": "function"
    },
    {
      "inputs": [
        {
          "internalType": "string",
          "name": "_name",
          "type": "string"
        },
        {
          "internalType": "string",
          "name": "_aliasName",
          "type": "string"
        },
        {
          "internalType": "string",
          "name": "_url",
          "type": "string"
        },
        {
          "internalType": "uint256",
          "name": "_price",
          "type": "uint256"
        }
      ],
      "name": "updateURL",
      "outputs": [],
      "stateMutability": "nonpayable",
      "type": "function"
    },
    {
      "inputs": [
        {
          "internalType": "uint256",
          "name": "_urlUpdatePrice",
          "type": "uint256"
        }
      ],
      "name": "updateURLUpdatePrice",
      "outputs": [],
      "stateMutability": "nonpayable",
      "type": "function"
    },
    {
      "inputs": [],
      "name": "urlUpdatePrice",
      "outputs": [
        {
          "internalType": "uint256",
          "name": "",
          "type": "uint256"
        }
      ],
      "stateMutability": "view",
      "type": "function"
    },
    {
      "inputs": [
        {
          "internalType": "bytes32",
          "name": "",
          "type": "bytes32"
        },
        {
          "internalType": "string",
          "name": "",
          "type": "string"
        }
      ],
      "name": "vanityURLPrices",
      "outputs": [
        {
          "internalType": "uint256",
          "name": "",
          "type": "uint256"
        }
      ],
      "stateMutability": "view",
      "type": "function"
    },
    {
      "inputs": [
        {
          "internalType": "bytes32",
          "name": "",
          "type": "bytes32"
        },
        {
          "internalType": "string",
          "name": "",
          "type": "string"
        }
      ],
      "name": "vanityURLUpdatedAt",
      "outputs": [
        {
          "internalType": "uint256",
          "name": "",
          "type": "uint256"
        }
      ],
      "stateMutability": "view",
      "type": "function"
    },
    {
      "inputs": [
        {
          "internalType": "bytes32",
          "name": "",
          "type": "bytes32"
        },
        {
          "internalType": "string",
          "name": "",
          "type": "string"
        }
      ],
      "name": "vanityURLs",
      "outputs": [
        {
          "internalType": "string",
          "name": "",
          "type": "string"
        }
      ],
      "stateMutability": "view",
      "type": "function"
    },
    {
      "inputs": [],
      "name": "withdraw",
      "outputs": [],
      "stateMutability": "nonpayable",
      "type": "function"
    }
  ],
  "transactionHash": "0x8b08ae5fbdadb46c648fa685f6eb50d03e1df35f90f16e7177f97630bb521f4b",
  "args": [],
  "numDeployments": 2,
  "solcInputHash": "735ffff6961d3a83455ec5c2b1e3f0ac",
  "bytecode": "0x608060405234801561001057600080fd5b50612614806100206000396000f3fe6080604052600436106101665760003560e01c80638456cb59116100d1578063d22da0751161008a578063f1558de711610064578063f1558de71461045a578063f2fde38b14610487578063f3ad65f4146104a7578063f5dc7d56146104c757600080fd5b8063d22da07514610404578063d6c5b8c91461041a578063dce02fdb1461043a57600080fd5b80638456cb591461035e5780638da5cb5b14610373578063b286724714610391578063b8447043146103b1578063b93fe539146103d1578063c350a1b5146103e457600080fd5b80633f4ba83a116101235780633f4ba83a146102875780635b9299cd1461029c5780635c975abb146102bc5780635de870c9146102e057806362dd514e14610300578063715018a61461034957600080fd5b806305e66add1461016b57806327b972f9146101a157806328b43107146101d957806330027f3b146102305780633ccfd60b146102525780633d0f34da14610267575b600080fd5b34801561017757600080fd5b5061018b610186366004611e0f565b6104e7565b6040516101989190611e7a565b60405180910390f35b3480156101ad57600080fd5b506101c16101bc366004611ef6565b61059d565b6040516001600160a01b039091168152602001610198565b3480156101e557600080fd5b506102226101f4366004611e0f565b60cc602090815260009283526040909220815180830184018051928152908401929093019190912091525481565b604051908152602001610198565b34801561023c57600080fd5b5061025061024b366004611f4d565b6106b8565b005b34801561025e57600080fd5b5061025061071c565b34801561027357600080fd5b50610222610282366004611f71565b610845565b34801561029357600080fd5b5061025061089b565b3480156102a857600080fd5b506102506102b7366004611fdd565b6108ad565b3480156102c857600080fd5b5060655460ff165b6040519015158152602001610198565b3480156102ec57600080fd5b506102506102fb366004611f71565b6108ba565b34801561030c57600080fd5b5061022261031b366004611e0f565b60cf602090815260009283526040909220815180830184018051928152908401929093019190912091525481565b34801561035557600080fd5b50610250610cdb565b34801561036a57600080fd5b50610250610ced565b34801561037f57600080fd5b506033546001600160a01b03166101c1565b34801561039d57600080fd5b5061018b6103ac366004611f71565b610cfd565b3480156103bd57600080fd5b506102506103cc366004611ff6565b610ddc565b6102506103df366004611ff6565b6111d5565b3480156103f057600080fd5b506102506103ff366004612099565b611704565b34801561041057600080fd5b5061022260cd5481565b34801561042657600080fd5b506102d06104353660046120db565b61185d565b34801561044657600080fd5b50610250610455366004611fdd565b6118be565b34801561046657600080fd5b50610222610475366004611fdd565b60ca6020526000908152604090205481565b34801561049357600080fd5b506102506104a2366004611f4d565b611993565b3480156104b357600080fd5b5060c9546101c1906001600160a01b031681565b3480156104d357600080fd5b5060ce546101c1906001600160a01b031681565b60cb60209081526000928352604090922081518083018401805192815290840192909301919091209152805461051c90612135565b80601f016020809104026020016040519081016040528092919081815260200182805461054890612135565b80156105955780601f1061056a57610100808354040283529160200191610595565b820191906000526020600020905b81548152906001019060200180831161057857829003601f168201915b505050505081565b60008083836040516105b092919061216f565b60405180910390209050600060c960009054906101000a90046001600160a01b03166001600160a01b0316631177e3cf6040518163ffffffff1660e01b8152600401602060405180830381865afa15801561060f573d6000803e3d6000fd5b505050506040513d601f19601f82011682018060405250810190610633919061217f565b6040516375ba902160e11b8152600481018490529091506000906001600160a01b0383169063eb75204290602401600060405180830381865afa15801561067e573d6000803e3d6000fd5b505050506040513d6000823e601f3d908101601f191682016040526106a691908101906121e1565b50939750505050505050505b92915050565b6106c0611a09565b60ce546040516001600160a01b038084169216907fe03b0e59900b6347a6bdef98fe51689d53064c5235a2ca9fc10a27c497ec730790600090a360ce80546001600160a01b0319166001600160a01b0392909216919091179055565b6033546001600160a01b031633148061073f575060ce546001600160a01b031633145b61079f5760405162461bcd60e51b815260206004820152602660248201527f443144433a206d757374206265206f776e6572206f7220726576656e7565206160448201526518d8dbdd5b9d60d21b60648201526084015b60405180910390fd5b60ce546040516000916001600160a01b03169047908381818185875af1925050503d80600081146107ec576040519150601f19603f3d011682016040523d82523d6000602084013e6107f1565b606091505b50509050806108425760405162461bcd60e51b815260206004820152601860248201527f443144433a206661696c656420746f20776974686472617700000000000000006044820152606401610796565b50565b600080858560405161085892919061216f565b60408051918290038220600081815260cf6020529190912090925090610881908690869061216f565b908152602001604051809103902054915050949350505050565b6108a3611a09565b6108ab611a63565b565b6108b5611a09565b60cd55565b6108c2611ab5565b83838080601f0160208091040260200160405190810160405280939291908181526020018383808284376000920182905250845160208087019190912060c95460408051631177e3cf60e01b815290519297509395506001600160a01b03169350631177e3cf9260048082019392918290030181865afa15801561094a573d6000803e3d6000fd5b505050506040513d601f19601f8201168201806040525081019061096e919061217f565b6040516375ba902160e11b8152600481018490529091506000906001600160a01b0383169063eb75204290602401600060405180830381865afa1580156109b9573d6000803e3d6000fd5b505050506040513d6000823e601f3d908101601f191682016040526109e191908101906121e1565b50505050509050806001600160a01b0316336001600160a01b031614610a195760405162461bcd60e51b8152600401610796906122a2565b60008888604051610a2b92919061216f565b60408051918290038220600081815260cb6020529182209093509091610a54908a908a9061216f565b90815260200160405180910390208054610a6d90612135565b80601f0160208091040260200160405190810160405280929190818152602001828054610a9990612135565b8015610ae65780601f10610abb57610100808354040283529160200191610ae6565b820191906000526020600020905b815481529060010190602001808311610ac957829003601f168201915b50505050509050610b608a8a8080601f01602080910402602001604051908101604052809392919081815260200183838082843760009201919091525050604080516020601f8e018190048102820181019092528c815292508c91508b908190840183828082843760009201919091525061185d92505050565b610ba55760405162461bcd60e51b815260206004820152601660248201527515985b9a5d1e5554930e881a5b9d985b1a590815549360521b6044820152606401610796565b80604051610bb391906122e3565b60405180910390208888604051610bcb92919061216f565b60405180910390208b8b604051610be392919061216f565b604051908190038120338252907f0ebb99856fe845dcc1e2291e7f2d8ac960cacfe58868974461990868583d62129060200160405180910390a46040518060200160405280600081525060cb60008481526020019081526020016000208989604051610c5092919061216f565b90815260200160405180910390209081610c6a919061234e565b50600082815260cf60205260408082209051610c89908b908b9061216f565b9081526020016040518091039020819055504260cc60008481526020019081526020016000208989604051610cbf92919061216f565b9081526040519081900360200190205550505050505050505050565b610ce3611a09565b6108ab6000611afb565b610cf5611a09565b6108ab611b4d565b606060008585604051610d1192919061216f565b60408051918290038220600081815260cb6020529190912090925090610d3a908690869061216f565b90815260200160405180910390208054610d5390612135565b80601f0160208091040260200160405190810160405280929190818152602001828054610d7f90612135565b8015610dcc5780601f10610da157610100808354040283529160200191610dcc565b820191906000526020600020905b815481529060010190602001808311610daf57829003601f168201915b5050505050915050949350505050565b610de4611ab5565b86868080601f0160208091040260200160405190810160405280939291908181526020018383808284376000920182905250845160208087019190912060c95460408051631177e3cf60e01b815290519297509395506001600160a01b03169350631177e3cf9260048082019392918290030181865afa158015610e6c573d6000803e3d6000fd5b505050506040513d601f19601f82011682018060405250810190610e90919061217f565b6040516375ba902160e11b8152600481018490529091506000906001600160a01b0383169063eb75204290602401600060405180830381865afa158015610edb573d6000803e3d6000fd5b505050506040513d6000823e601f3d908101601f19168201604052610f0391908101906121e1565b50505050509050806001600160a01b0316336001600160a01b031614610f3b5760405162461bcd60e51b8152600401610796906122a2565b610400861115610f875760405162461bcd60e51b815260206004820152601760248201527656616e69747955524c3a2075726c20746f6f206c6f6e6760481b6044820152606401610796565b60008b8b604051610f9992919061216f565b604051809103902090506110278c8c8080601f016020809104026020016040519081016040528093929190818152602001838380828437600081840152601f19601f820116905080830192505050505050508b8b8080601f01602080910402602001604051908101604052809392919081815260200183838082843760009201919091525061185d92505050565b61106c5760405162461bcd60e51b815260206004820152601660248201527515985b9a5d1e5554930e881a5b9d985b1a590815549360521b6044820152606401610796565b878760405161107c92919061216f565b60405180910390208a8a60405161109492919061216f565b60405180910390208d8d6040516110ac92919061216f565b60405180910390207f8f15bace628f489647bc55fd6c23124abf4d26c0b822e9c80195ab0d6fc4079a3360cb60008781526020019081526020016000208f8f6040516110f992919061216f565b90815260405190819003602001812061111492918d9061240e565b60405180910390a4878760cb60008481526020019081526020016000208c8c60405161114192919061216f565b9081526020016040518091039020918261115c9291906124b1565b508560cf60008381526020019081526020016000208b8b60405161118192919061216f565b9081526020016040518091039020819055504260cc60008381526020019081526020016000208b8b6040516111b792919061216f565b90815260405190819003602001902055505050505050505050505050565b6111dd611b8a565b6111e5611ab5565b86868080601f0160208091040260200160405190810160405280939291908181526020018383808284376000920182905250845160208087019190912060c95460408051631177e3cf60e01b815290519297509395506001600160a01b03169350631177e3cf9260048082019392918290030181865afa15801561126d573d6000803e3d6000fd5b505050506040513d601f19601f82011682018060405250810190611291919061217f565b6040516375ba902160e11b8152600481018490529091506000906001600160a01b0383169063eb75204290602401600060405180830381865afa1580156112dc573d6000803e3d6000fd5b505050506040513d6000823e601f3d908101601f1916820160405261130491908101906121e1565b50505050509050806001600160a01b0316336001600160a01b03161461133c5760405162461bcd60e51b8152600401610796906122a2565b61040088111561138e5760405162461bcd60e51b815260206004820152601960248201527f56616e69747955524c3a20616c69617320746f6f206c6f6e67000000000000006044820152606401610796565b6104008611156113da5760405162461bcd60e51b815260206004820152601760248201527656616e69747955524c3a2075726c20746f6f206c6f6e6760481b6044820152606401610796565b60008b8b6040516113ec92919061216f565b6040518091039020905061147a8c8c8080601f016020809104026020016040519081016040528093929190818152602001838380828437600081840152601f19601f820116905080830192505050505050508b8b8080601f01602080910402602001604051908101604052809392919081815260200183838082843760009201919091525061185d92505050565b156114c75760405162461bcd60e51b815260206004820152601d60248201527f56616e69747955524c3a2075726c20616c7265616479206578697374730000006044820152606401610796565b60cd543481111561151a5760405162461bcd60e51b815260206004820152601f60248201527f56616e69747955524c3a20696e73756666696369656e74207061796d656e74006044820152606401610796565b888860cb60008581526020019081526020016000208d8d60405161153f92919061216f565b9081526020016040518091039020918261155a9291906124b1565b508660cf60008481526020019081526020016000208c8c60405161157f92919061216f565b9081526020016040518091039020819055504260cc60008481526020019081526020016000208c8c6040516115b592919061216f565b9081526040519081900360200190205560006115d18234612572565b9050801561166a57604051600090339083908381818185875af1925050503d806000811461161b576040519150601f19603f3d011682016040523d82523d6000602084013e611620565b606091505b50509050806116685760405162461bcd60e51b815260206004820152601460248201527363616e6e6f7420726566756e642065786365737360601b6044820152606401610796565b505b898960405161167a92919061216f565b60405180910390208c8c60405161169292919061216f565b60405180910390208f8f6040516116aa92919061216f565b60408051918290038220338352602083018d9052917f82ea60ecc0145e847901caa4ad9da354135e29caa755550ca0549519d27685e8910160405180910390a4505050505050506116fb6001609755565b50505050505050565b600054610100900460ff16158080156117245750600054600160ff909116105b8061173e5750303b15801561173e575060005460ff166001145b6117a15760405162461bcd60e51b815260206004820152602e60248201527f496e697469616c697a61626c653a20636f6e747261637420697320616c72656160448201526d191e481a5b9a5d1a585b1a5e995960921b6064820152608401610796565b6000805460ff1916600117905580156117c4576000805461ff0019166101001790555b6117cc611bea565b6117d4611c19565b6117dc611c48565b60c980546001600160a01b038087166001600160a01b03199283161790925560cd85905560ce8054928516929091169190911790558015611857576000805461ff0019169055604051600181527f7f26b83ff96e1f2b6a682f133852f6798a09c465da95921460cefb38474024989060200160405180910390a15b50505050565b8151602080840191909120600081815260cc909252604080832090516118849085906122e3565b90815260200160405180910390205460ca600083815260200190815260200160002054106118b35760006118b6565b60015b949350505050565b60c95460408051631177e3cf60e01b815290516000926001600160a01b031691631177e3cf9160048083019260209291908290030181865afa158015611908573d6000803e3d6000fd5b505050506040513d601f19601f8201168201806040525081019061192c919061217f565b9050336001600160a01b0382161461197f5760405162461bcd60e51b81526020600482015260166024820152752b30b734ba3caaa9261d1037b7363c902218a221ab1960511b6044820152606401610796565b50600090815260ca60205260409020429055565b61199b611a09565b6001600160a01b038116611a005760405162461bcd60e51b815260206004820152602660248201527f4f776e61626c653a206e6577206f776e657220697320746865207a65726f206160448201526564647265737360d01b6064820152608401610796565b61084281611afb565b6033546001600160a01b031633146108ab5760405162461bcd60e51b815260206004820181905260248201527f4f776e61626c653a2063616c6c6572206973206e6f7420746865206f776e65726044820152606401610796565b611a6b611c77565b6065805460ff191690557f5db9ee0a495bf2e6ff9c91a7834c1ba4fdd244a5e8aa4e537bd38aeae4b073aa335b6040516001600160a01b03909116815260200160405180910390a1565b60655460ff16156108ab5760405162461bcd60e51b815260206004820152601060248201526f14185d5cd8589b194e881c185d5cd95960821b6044820152606401610796565b603380546001600160a01b038381166001600160a01b0319831681179093556040519116919082907f8be0079c531659141344cd1fd0a4f28419497f9722a3daafe3b4186f6b6457e090600090a35050565b611b55611ab5565b6065805460ff191660011790557f62e78cea01bee320cd4e420270b5ea74000d11b0c9f74754ebdbfc544b05a258611a983390565b600260975403611bdc5760405162461bcd60e51b815260206004820152601f60248201527f5265656e7472616e637947756172643a207265656e7472616e742063616c6c006044820152606401610796565b6002609755565b6001609755565b600054610100900460ff16611c115760405162461bcd60e51b815260040161079690612593565b6108ab611cc0565b600054610100900460ff16611c405760405162461bcd60e51b815260040161079690612593565b6108ab611cf3565b600054610100900460ff16611c6f5760405162461bcd60e51b815260040161079690612593565b6108ab611d23565b60655460ff166108ab5760405162461bcd60e51b815260206004820152601460248201527314185d5cd8589b194e881b9bdd081c185d5cd95960621b6044820152606401610796565b600054610100900460ff16611ce75760405162461bcd60e51b815260040161079690612593565b6065805460ff19169055565b600054610100900460ff16611d1a5760405162461bcd60e51b815260040161079690612593565b6108ab33611afb565b600054610100900460ff16611be35760405162461bcd60e51b815260040161079690612593565b634e487b7160e01b600052604160045260246000fd5b604051601f8201601f1916810167ffffffffffffffff81118282101715611d8957611d89611d4a565b604052919050565b600067ffffffffffffffff821115611dab57611dab611d4a565b50601f01601f191660200190565b600082601f830112611dca57600080fd5b8135611ddd611dd882611d91565b611d60565b818152846020838601011115611df257600080fd5b816020850160208301376000918101602001919091529392505050565b60008060408385031215611e2257600080fd5b82359150602083013567ffffffffffffffff811115611e4057600080fd5b611e4c85828601611db9565b9150509250929050565b60005b83811015611e71578181015183820152602001611e59565b50506000910152565b6020815260008251806020840152611e99816040850160208701611e56565b601f01601f19169190910160400192915050565b60008083601f840112611ebf57600080fd5b50813567ffffffffffffffff811115611ed757600080fd5b602083019150836020828501011115611eef57600080fd5b9250929050565b60008060208385031215611f0957600080fd5b823567ffffffffffffffff811115611f2057600080fd5b611f2c85828601611ead565b90969095509350505050565b6001600160a01b038116811461084257600080fd5b600060208284031215611f5f57600080fd5b8135611f6a81611f38565b9392505050565b60008060008060408587031215611f8757600080fd5b843567ffffffffffffffff80821115611f9f57600080fd5b611fab88838901611ead565b90965094506020870135915080821115611fc457600080fd5b50611fd187828801611ead565b95989497509550505050565b600060208284031215611fef57600080fd5b5035919050565b60008060008060008060006080888a03121561201157600080fd5b873567ffffffffffffffff8082111561202957600080fd5b6120358b838c01611ead565b909950975060208a013591508082111561204e57600080fd5b61205a8b838c01611ead565b909750955060408a013591508082111561207357600080fd5b506120808a828b01611ead565b989b979a50959894979596606090950135949350505050565b6000806000606084860312156120ae57600080fd5b83356120b981611f38565b92506020840135915060408401356120d081611f38565b809150509250925092565b600080604083850312156120ee57600080fd5b823567ffffffffffffffff8082111561210657600080fd5b61211286838701611db9565b9350602085013591508082111561212857600080fd5b50611e4c85828601611db9565b600181811c9082168061214957607f821691505b60208210810361216957634e487b7160e01b600052602260045260246000fd5b50919050565b8183823760009101908152919050565b60006020828403121561219157600080fd5b8151611f6a81611f38565b600082601f8301126121ad57600080fd5b81516121bb611dd882611d91565b8181528460208386010111156121d057600080fd5b6118b6826020830160208701611e56565b60008060008060008060c087890312156121fa57600080fd5b865161220581611f38565b602088015190965063ffffffff8116811461221f57600080fd5b60408801516060890151919650945067ffffffffffffffff8082111561224457600080fd5b6122508a838b0161219c565b9450608089015191508082111561226657600080fd5b6122728a838b0161219c565b935060a089015191508082111561228857600080fd5b5061229589828a0161219c565b9150509295509295509295565b60208082526021908201527f56616e69747955524c3a206f6e6c7920443144435632206e616d65206f776e656040820152603960f91b606082015260800190565b600082516122f5818460208701611e56565b9190910192915050565b601f82111561234957600081815260208120601f850160051c810160208610156123265750805b601f850160051c820191505b8181101561234557828155600101612332565b5050505b505050565b815167ffffffffffffffff81111561236857612368611d4a565b61237c816123768454612135565b846122ff565b602080601f8311600181146123b157600084156123995750858301515b600019600386901b1c1916600185901b178555612345565b600085815260208120601f198616915b828110156123e0578886015182559484019460019091019084016123c1565b50858210156123fe5787850151600019600388901b60f8161c191681555b5050505050600190811b01905550565b60018060a01b0384168152600060206060818401526000855461243081612135565b8060608701526080600180841660008114612452576001811461246c5761249a565b60ff1985168984015283151560051b89018301955061249a565b8a6000528660002060005b858110156124925781548b8201860152908301908801612477565b8a0184019650505b505050505060409390930193909352509392505050565b67ffffffffffffffff8311156124c9576124c9611d4a565b6124dd836124d78354612135565b836122ff565b6000601f84116001811461251157600085156124f95750838201355b600019600387901b1c1916600186901b17835561256b565b600083815260209020601f19861690835b828110156125425786850135825560209485019460019092019101612522565b508682101561255f5760001960f88860031b161c19848701351681555b505060018560011b0183555b5050505050565b818103818111156106b257634e487b7160e01b600052601160045260246000fd5b6020808252602b908201527f496e697469616c697a61626c653a20636f6e7472616374206973206e6f74206960408201526a6e697469616c697a696e6760a81b60608201526080019056fea26469706673582212204c442da1376b2bef7616e6feb57b7d5505e7c1bb25c99161602d0b5c8bc13ceb64736f6c63430008110033",
  "devdoc": {
    "kind": "dev",
    "methods": {
      "owner()": {
        "details": "Returns the address of the current owner."
      },
      "paused()": {
        "details": "Returns true if the contract is paused, and false otherwise."
      },
      "renounceOwnership()": {
        "details": "Leaves the contract without owner. It will not be possible to call `onlyOwner` functions anymore. Can only be called by the current owner. NOTE: Renouncing ownership will leave the contract without an owner, thereby removing any functionality that is only available to the owner."
      },
      "transferOwnership(address)": {
        "details": "Transfers ownership of the contract to a new account (`newOwner`). Can only be called by the current owner."
      }
    },
    "stateVariables": {
      "addressRegistry": {
        "details": "AddressRegistry contract"
      },
      "nameOwnerUpdateAt": {
        "details": "D1DCV2 TokenId -> Timestamp the name owner was updated"
      },
      "revenueAccount": {
        "details": "Fee withdrawal address"
      },
      "urlUpdatePrice": {
        "details": "Price for the url update"
      },
      "vanityURLPrices": {
        "details": "D1DCV2 TokenId -> Alias Name -> Content Price"
      },
      "vanityURLUpdatedAt": {
        "details": "D1DCV2 Token Id -> Alias Name -> Timestamp the URL was updatedVanity URL is valid only if nameOwnerUpdateAt <= vanityURLUpdatedAt"
      },
      "vanityURLs": {
        "details": "D1DCV2 TokenId -> Alias Name -> URL"
      }
    },
    "version": 1
  },
  "userdoc": {
    "kind": "user",
    "methods": {},
    "version": 1
  },
  "storageLayout": {
    "storage": [
      {
        "astId": 138,
        "contract": "contracts/VanityURL.sol:VanityURL",
        "label": "_initialized",
        "offset": 0,
        "slot": "0",
        "type": "t_uint8"
      },
      {
        "astId": 141,
        "contract": "contracts/VanityURL.sol:VanityURL",
        "label": "_initializing",
        "offset": 1,
        "slot": "0",
        "type": "t_bool"
      },
      {
        "astId": 825,
        "contract": "contracts/VanityURL.sol:VanityURL",
        "label": "__gap",
        "offset": 0,
        "slot": "1",
        "type": "t_array(t_uint256)50_storage"
      },
      {
        "astId": 10,
        "contract": "contracts/VanityURL.sol:VanityURL",
        "label": "_owner",
        "offset": 0,
        "slot": "51",
        "type": "t_address"
      },
      {
        "astId": 130,
        "contract": "contracts/VanityURL.sol:VanityURL",
        "label": "__gap",
        "offset": 0,
        "slot": "52",
        "type": "t_array(t_uint256)49_storage"
      },
      {
        "astId": 321,
        "contract": "contracts/VanityURL.sol:VanityURL",
        "label": "_paused",
        "offset": 0,
        "slot": "101",
        "type": "t_bool"
      },
      {
        "astId": 426,
        "contract": "contracts/VanityURL.sol:VanityURL",
        "label": "__gap",
        "offset": 0,
        "slot": "102",
        "type": "t_array(t_uint256)49_storage"
      },
      {
        "astId": 441,
        "contract": "contracts/VanityURL.sol:VanityURL",
        "label": "_status",
        "offset": 0,
        "slot": "151",
        "type": "t_uint256"
      },
      {
        "astId": 499,
        "contract": "contracts/VanityURL.sol:VanityURL",
        "label": "__gap",
        "offset": 0,
        "slot": "152",
        "type": "t_array(t_uint256)49_storage"
      },
      {
        "astId": 843,
        "contract": "contracts/VanityURL.sol:VanityURL",
        "label": "addressRegistry",
        "offset": 0,
        "slot": "201",
        "type": "t_contract(IAddressRegistry)1519"
      },
      {
        "astId": 848,
        "contract": "contracts/VanityURL.sol:VanityURL",
        "label": "nameOwnerUpdateAt",
        "offset": 0,
        "slot": "202",
        "type": "t_mapping(t_bytes32,t_uint256)"
      },
      {
        "astId": 855,
        "contract": "contracts/VanityURL.sol:VanityURL",
        "label": "vanityURLs",
        "offset": 0,
        "slot": "203",
        "type": "t_mapping(t_bytes32,t_mapping(t_string_memory_ptr,t_string_storage))"
      },
      {
        "astId": 862,
        "contract": "contracts/VanityURL.sol:VanityURL",
        "label": "vanityURLUpdatedAt",
        "offset": 0,
        "slot": "204",
        "type": "t_mapping(t_bytes32,t_mapping(t_string_memory_ptr,t_uint256))"
      },
      {
        "astId": 865,
        "contract": "contracts/VanityURL.sol:VanityURL",
        "label": "urlUpdatePrice",
        "offset": 0,
        "slot": "205",
        "type": "t_uint256"
      },
      {
        "astId": 868,
        "contract": "contracts/VanityURL.sol:VanityURL",
        "label": "revenueAccount",
        "offset": 0,
        "slot": "206",
        "type": "t_address"
      },
      {
        "astId": 875,
        "contract": "contracts/VanityURL.sol:VanityURL",
        "label": "vanityURLPrices",
        "offset": 0,
        "slot": "207",
        "type": "t_mapping(t_bytes32,t_mapping(t_string_memory_ptr,t_uint256))"
      }
    ],
    "types": {
      "t_address": {
        "encoding": "inplace",
        "label": "address",
        "numberOfBytes": "20"
      },
      "t_array(t_uint256)49_storage": {
        "base": "t_uint256",
        "encoding": "inplace",
        "label": "uint256[49]",
        "numberOfBytes": "1568"
      },
      "t_array(t_uint256)50_storage": {
        "base": "t_uint256",
        "encoding": "inplace",
        "label": "uint256[50]",
        "numberOfBytes": "1600"
      },
      "t_bool": {
        "encoding": "inplace",
        "label": "bool",
        "numberOfBytes": "1"
      },
      "t_bytes32": {
        "encoding": "inplace",
        "label": "bytes32",
        "numberOfBytes": "32"
      },
      "t_contract(IAddressRegistry)1519": {
        "encoding": "inplace",
        "label": "contract IAddressRegistry",
        "numberOfBytes": "20"
      },
      "t_mapping(t_bytes32,t_mapping(t_string_memory_ptr,t_string_storage))": {
        "encoding": "mapping",
        "key": "t_bytes32",
        "label": "mapping(bytes32 => mapping(string => string))",
        "numberOfBytes": "32",
        "value": "t_mapping(t_string_memory_ptr,t_string_storage)"
      },
      "t_mapping(t_bytes32,t_mapping(t_string_memory_ptr,t_uint256))": {
        "encoding": "mapping",
        "key": "t_bytes32",
        "label": "mapping(bytes32 => mapping(string => uint256))",
        "numberOfBytes": "32",
        "value": "t_mapping(t_string_memory_ptr,t_uint256)"
      },
      "t_mapping(t_bytes32,t_uint256)": {
        "encoding": "mapping",
        "key": "t_bytes32",
        "label": "mapping(bytes32 => uint256)",
        "numberOfBytes": "32",
        "value": "t_uint256"
      },
      "t_mapping(t_string_memory_ptr,t_string_storage)": {
        "encoding": "mapping",
        "key": "t_string_memory_ptr",
        "label": "mapping(string => string)",
        "numberOfBytes": "32",
        "value": "t_string_storage"
      },
      "t_mapping(t_string_memory_ptr,t_uint256)": {
        "encoding": "mapping",
        "key": "t_string_memory_ptr",
        "label": "mapping(string => uint256)",
        "numberOfBytes": "32",
        "value": "t_uint256"
      },
      "t_string_memory_ptr": {
        "encoding": "bytes",
        "label": "string",
        "numberOfBytes": "32"
      },
      "t_string_storage": {
        "encoding": "bytes",
        "label": "string",
        "numberOfBytes": "32"
      },
      "t_uint256": {
        "encoding": "inplace",
        "label": "uint256",
        "numberOfBytes": "32"
      },
      "t_uint8": {
        "encoding": "inplace",
        "label": "uint8",
        "numberOfBytes": "1"
      }
    }
  }
}